:0400000017EF01F005
:100008005B82D9CF03F0DACF04F022D0AECFE2F092
:10001800010148514711461104E1040E455DD8A07D
:1000280002D0000E876F3C0E8719D8B48707780E68
:100038008725D96EDA6A040EDA22E2C0DFFF872B41
:10004800000E456F000E466F000E476F000E486F9A
:100058009EBADCD79EB89DA856D0000E0101842513
:10006800D96EDA6A040EDA22DF50AD6E842B835122
:100078008419D8B404D03C0E8419D8A403D09D9810
:10008800000E846F000E456F000E466F000E476F1E
:10009800000E486F38D071B4D0A20BD05A50D8A4F3
:1000A80008D074CFE2F00001E251D8A404D0FF00D8
:1000B80002D074CFE2F0D082E2C073FF320E0001AA
:1000C800E119D8B4E107080EE219D8A405D0E15126
:1000D800D8B402D0E10717D00D0EE219D8B404D075
:1000E8000A0EE219D8A405D0000EE26FE129010139
:1000F800856F340E0001E125D96EDA6A020EDA2224
:10010800E2C0DFFFE12BA4AA86D0C5D70001EC51DD
:10011800D8B469D001018151D8B431D0580E5D5D91
:10012800020E5E59D8B002D0899801D08988898A90
:100138005D51016E5E51026E5D4B5E2BBD0E015C22
:10014800020E0258D8A016D082A202D0010E01D009
:10015800000E8219D8A40AD0890E5D5D130E5E596F
:10016800D8A008D0000E5E6F000E03D0020E5E6F9E
:10017800BC0E5D6F000E606F000E5F6F34D0805153
:10018800D8B431D0580E5F5D020E6059D8B003D094
:100198008988899A02D08988898A5F51016E60515D
:1001A800026E5F4B602BBD0E015C020E0258D8A098
:1001B80016D082A202D0010E01D0000EC619D8A412
:1001C8000AD0890E5F5D130E6059D8A008D0000EC2
:1001D800606F000E03D0020E606FBC0E5F6F000EE2
:1001E8005E6F000E5D6F010E01014927000E4A2364
:1001F8004B234C23010E4527000E46234723482353
:1002080079077929D8A406D076C167FF0A0E796FD5
:10021800010E786F7E907EB079D704C0DAFF03C0F4
:10022800D9FF5B921100E1EF42F0000E0501A16FCA
:10023800000EA26F050E9F6F000E8D6F000EA06F4F
:10024800010E7C6F000E7D6F010E7F6F25EE92F020
:100258000B0EDE6AE806FDE225EE81F00B0EDE6A83
:10026800E806FDE2080EA46F000E8E6F000E8F6F79
:10027800000E906F000E916F000E786F000E796F70
:10028800000E7A6F000E7B6F020E9E6F0FEC45F02A
:100298001EEC34F0F6C005F0F7C006F0000E086E4C
:1002A8000A0E076E0DEC52F005C0D5F006C0D6F068
:1002B800E8EC52F089869FEC49F03AEC51F0D08294
:1002C80036EC3AF00501A56F020EA519D8A402D0A4
:1002D800800E596E000EF8EC4AF00001DE51D8A4E9
:1002E80030EC3FF001018551D8A4E6EC12F0010191
:1002F8006D51D8B412D048514711461104E1070E88
:10030800455DD8A00AD08A8A000E066E010E056ED9
:10031800F2EC4FF09D88000E6D6F8451D8B4ACA2FA
:1003280001D08A9ABFEC48F0A30E946E00F000F05A
:100338008250210B0501A56FA539E8461F0B010165
:10034800C56F0501A551A525020B0101C5138150F3
:10035800010BC513820E946E070EC519D8A404D0DC
:10036800C451C519D8B403D0C55137EC21F0010EDA
:100378007D651DD0250E7D611AD0880E4125CD6F73
:10038800130E4221CE6F000E4321CF6F000E442181
:10039800D06F4951CD5D4A51CE594B51CF594C512F
:1003A800D059D8B004D07C51D8B477EC45F07D5101
:1003B800D8A42BD0060EC519D8A427D00001ED511A
:1003C800D8B423D005017E51D8A41FD0020E000155
:1003D800EA611BD0030EE919D8A417D0ED51FF0A22
:1003E800030B20EC52F0DE0E5916000E586E000E6C
:1003F8000001AD6F000EAC6F32EC50F0000E010141
:100408007E6F050E05017E6F0BD005017E51D8B4B5
:1004180007D0070E0101C519D8A402D005017E072F
:1004280081A402D0010E01D0000E05017F19D8A4C5
:1004380003D0A151D8B4D5D07D2B7D050101CD6F56
:10044800060ECD6104D00501A151D8B4CDD0000E5F
:1004580081B4010E05017F6F7F51D8B469D0B6D041
:100468005750D8B406D0000E576E000EF8EC4AF07C
:100478006ED0010E576E6BD00501A151D8A40AD0D9
:10048800010EA16F49C178F54AC179F54BC17AF5DA
:100498004CC17BF5A151D8B45AD0DC0E78250101A6
:1004A800CD6F050E050179210101CE6F000E050102
:1004B8007A210101CF6F000E05017B210101D06F68
:1004C8004951CD5D4A51CE594B51CF594C51D05914
:1004D800D8B03DD0020E5A18D8A439D0000EF8EC86
:1004E8004AF00001DE51D8A402D00F0E586E020E59
:1004F8000501A16F2CD0020EED19D8A428D0010E49
:1005080020EC52F0000E0001AD6F000EAC6F32EC23
:1005180050F01DD0020E5A18D8A419D0000EF8ECCD
:100528004AF00001DE51D8A412D00F0E586E0FD039
:100538000001E951010AD8B493D7030AD8B499D76E
:10054800010AD8B499D7070AD8B4D5D7E3D7000198
:10055800E805D8B459A802D081A259983C0E0101E7
:100568007F6F89863ED0000E576E000EF8EC4AF079
:1005780038D0020E0501A119D8B41DD00001ED052F
:10058800D8A404D0020E20EC52F007D0020EED19C8
:10059800D8A403D0010E20EC52F0DE0E5916000E3E
:1005A800586E000E0001AD6F000EAC6F32EC50F0CB
:1005B800000E01017E6F000E0501A16F12D0ED053E
:1005C800D8A40FD0020E20EC52F00BD00001E95154
:1005D800020AD8B4C8D7010AD8B4CBD7070AD8B406
:1005E800EED7000E05017D6F0001E805D8B481A2A1
:1005F8000AD081A208D0000EF8EC4AF0100E596E0D
:10060800000E01017E6F020E0001E319D8A409D083
:100618005750D8A402D0010E01D0000E0101816FFD
:1006280005D0020E5A18D8A4F6D7F7D75A04D8B46A
:1006380004D0020E5A18D8A402D0010E01D0000E20
:10064800806F5A50D8B404D0040E5A18D8A4A4D035
:10065800DFEC4BF00501A36FA305D8A42BD0020E45
:100668000001E319D8A409D00501A051D8A405D0E8
:100678005704D8A402D03C0EA06F040E5A18D8A470
:1006880003D0000EF8EC4AF0599A5990000E586EB3
:100698000101886905019E51D8A402D0010E9E6F00
:1006A800000E0201926F000E916F000E906F000E07
:1006B8008F6F72D0020EA319D8B404D0020EA319FA
:1006C800D8A468D05950D8A465D05850D8A462D0BE
:1006D8005750D8B45FD0040E5A18D8B45BD0010173
:1006E8008805D8A451D00501A22BA2050101CD6F20
:1006F800190ECD6551D0000E6F6F55EC49F0F451CD
:10070800D95DF551DA59D8B00BD0D9C005F0DAC0A7
:1007180006F0000E086E0A0E076E0DEC52F00AD0B5
:10072800F4C005F0F5C006F0000E086E0A0E076E5C
:100738000DEC52F005C065F106C066F1010E00012E
:10074800EA6504D0040EF8EC4AF026D0D9C005F0CA
:10075800DAC006F0000E086E0A0E076E0DEC52F0B5
:1007680005C000F206C001F265C189F166C18AF1CF
:10077800010EF8EC4AF01E0E01016E6F3C0E7F6F01
:10078800000E0501A06F08D0010E886F000E05014C
:10079800A26F02D001018869050E5A18D8A40BD09F
:1007A800010EF8EC4AF01E0E01016E6F3C0E7F6FD1
:1007B800000E0501A06F5A04D8B404D0060E5A18CA
:1007C800D8A4A6D0070EBC648AD0180EBC6087D007
:1007D800DFEC4BF00501A36FA305D8A415D00101E8
:1007E8008851D8A40FD00501A22BA2050101CD6F15
:1007F800190ECD6574D0000EF8EC4AF03C0E0101DC
:100808007F6F6DD0000E57D0030EA319D8A458D00F
:10081800020E01018819D8A44DD06F05D8A44AD07A
:100828000501A22BA2050101CD6F190ECD6557D088
:100838005950D8A454D05850D8A451D00001E451EC
:10084800D8B40ED005019E51D8B40AD08EC539F15E
:100858008FC53AF190C53BF191C53CF1000E9E6FF2
:10086800010E0001EA6508D0060E5A18D8B437D030
:10087800060EF8EC4AF033D065C100F266C101F209
:10088800000E0EEC39F00009D8B412D0000E0101A8
:100898008A6F000E896F010E9AEC1DF0020EF8ECBB
:1008A8004AF001017D51D8A41AD0C2EC18F017D033
:1008B800598015D0020E886F000E0501A26F0FD067
:1008C80001016E51D8A409D0080EF8EC4AF0030EC5
:1008D80005018D6F000EBD6E829401018869E60ED8
:1008E800BC6416D0F10EBC64FDD7F10EBC6410D008
:1008F800F90EBC600DD0DFEC4BF00501A36F040EC0
:10090800A319D8A402D0010E01D0000E01016F6F07
:10091800080E5A18D8A40AD005018D51D8A406D0BB
:10092800010EF8EC4AF0828401016E69070E5A182C
:10093800D8A409D0020EF8EC4AF0010188697D516B
:10094800D8B4C2EC18F0020E5A18D8A447D0070E33
:10095800BC6444D0180EBC6041D0DFEC4BF00501FC
:10096800A36FA305D8B403D0A351D8A415D001010F
:100978008851D8A40FD00501A22BA2050101CD6F83
:10098800190ECD652BD08A98000EF8EC4AF09FEC32
:1009980049F024D0000E1BD0020EA319D8A41CD0F5
:1009A80001018805D8A412D00501A22BA2050101D6
:1009B800CD6F190ECD6512D08A98010EF8EC4AF069
:1009C8009FEC49F0000E01016F6F08D0010E886F8F
:1009D800000E0501A26F02D001018869ABA202D006
:1009E800AB98AB8871A202D071987188D6CFA5F563
:1009F8003C0ED7641BD201018829D8B404D0020E5A
:100A08005A18D8B413D2000ED76E000ED66EAFECBB
:100A18004FF044EC3DF05A04D8A404D001016E29EB
:100A2800D8A46E07080E5A18D8A404D005018D5111
:100A3800D8A48D07010155515611D8B40DD05507CA
:100A4800D8A0560755515611D8A406D0000EF8EC78
:100A58004AF0598A6DEC50F05850D8A45806050150
:100A6800A051D8B40BD05A50D8A408D0A02F08D081
:100A7800000E576E3C0E01017F6F02D0000EA06F72
:100A88000001DF51800A490FD8A059A401D0599418
:100A980059C0CDF1210E0101CD17D8B417D0020EDF
:100AA8000001EA6113D0000E0EEC39F00009D8B449
:100AB8000DD05990599A000E0001A96F010EA86F28
:100AC80059C0AAF0AB6B090EF2EC50F001016C5161
:100AD800D8A46C07000E0501A56F070EA56501D007
:100AE80017D0290EA525D96EDA6A010EDA22020E70
:100AF800DE18D8A40BD0A551080D910EF324D96E99
:100B0800020EF420DA6EDE2A000EDD22A52BE5D7D0
:100B180001016A51D8B413D16A07FED0AB0E056E35
:100B2800010E066EB10E076E010E086E000E0A6EFB
:100B3800060E096ED9EC4DF0010E0101696FFFD068
:100B4800000E0501806F000EA56F020EA56501D08D
:100B580058D0A551020DB10EF324D96E010EF42020
:100B6800DA6EE20E0101CF6FFF0ED06F0501A551BD
:100B7800020DAB0EF324E16E010EF420E26EE6CF17
:100B8800D1F1E5CFD2F10101CF51D127D051D223F4
:100B9800DE50D15DD251800AD36FDE50800AD3591E
:100BA800D8B02CD0F60ECD6FFF0ECE6F0501A55133
:100BB800020DAB0EF324D96E010EF420DA6EDECFEF
:100BC800CFF1DDCFD0F10101CD51CF27CE51D023C8
:100BD8000501A551020DB10EF324D96E010EF420C2
:100BE800DA6E0101CF51DE5CDE50800AD36FD0513E
:100BF800800AD359D8B002D00501802B0501A52B56
:100C0800A4D7000E0101696F6B51080D900EF324F3
:100C1800D96E020EF420DA6EDF50D8B450D06B5182
:100C2800080D900EF324D96E020EF420DA6E050139
:100C38008051DE18D8A44DD001016B51080D8F0EDC
:100C4800F324D96E020EF420DA6E6B51080D900E63
:100C5800F324E16E020EF420E26EE7500001F20385
:100C6800F3500A0DF3CFDFFFD40E6C6FF30E6D6FE8
:100C78006BC16EF06F6B01016B51080D8F0EF32481
:100C8800D96E020EF420DA6EDF50CD6FCD5100011F
:100C9800706F716B01016B51080D900EF324D96EC2
:100CA800020EF420DA6EDF50CE6FCE510001726F63
:100CB800736B7EEC51F0000E01016A6F0AD06B5124
:100CC800080D900EF324D96E020EF420DA6E80C55A
:100CD800DFFF01016A51D8A432D06B51080D8F0E85
:100CE800F324D96E020EF420DA6EDF50D8A427D090
:100CF8006B51080D8F0EF324D96E020EF420DA6EB4
:100D08000001F2510A0DF3CFDFFF880E6C6FF80E69
:100D18006D6F7EEC51F013D00C0E056E6A5194EC99
:100D280051F00101CD6FCE6BCE51000AD8A407D087
:100D3800CD51000AD8B404D7040AD8B4EFD60501B7
:100D48009F51D8B459B20ED05982000EF8EC4AF02F
:100D5800180E00016C6FF80E6D6F7EEC51F06DECA3
:100D680050F003D09F51D8A49F070001DF51800A9B
:100D78003F0FD8B059B412D05984000EF8EC4AF09D
:100D88006D0E00016C6FF80E6D6FDF516E6F6F6B3B
:100D98006EBF6F077EEC51F06DEC50F059C0CDF18D
:100DA800210E0101CD17D8B41DD0020E0001ED1996
:100DB800D8A40AD05850D8A410D0510E6C6FF80E91
:100DC8006D6F7EEC51F009D05850D8A406D00E0EA5
:100DD8006C6FF70E6D6F7EEC51F0000EF8EC4AF078
:100DE8003C0E586EC2EC18F0020E0001EA611ED0EB
:100DF80001016C51D8A41AD005017C077C29D8A41C
:100E080015D00001ED51D8B404D0010E0101756F61
:100E18000AD0000ED86F000ED76F060E0101756F4D
:100E28000A0E05019F6F010E05017C6F01017551C6
:100E3800D8B41BD148514711461105E1640E455DF0
:100E4800D8B0D7D012D1D5D00001E651D8B406D049
:100E5800F9C0B1F0E65154EC43F007D10101752B0C
:100E6800FAC0B1F00001FB5154EC43F0FED005018B
:100E7800A42B070EA46502D0000EA46FA451080D80
:100E88008B0EF324D96E020EF420DA6EDF50D8B43C
:100E9800EED7A451080D8C0EF324D96E020EF4205F
:100EA800DA6EDF50D8B404D0A45178EC52F0DDD01B
:100EB8000101752B0501A451080D8D0EF324D96E7F
:100EC800020EF420DA6EDF50D8B418D0A451080D01
:100ED8008E0EF324D96E020EF420DA6EDF50000174
:100EE800B16F0501A451080D8D0EF324D96E020EC1
:100EF800F420DA6EDF5034EC4BF0B7D00101752BDB
:100F0800090EC36118D0C351080D8E0EF324D96E93
:100F1800020EF420DA6EDF500001B16F0101C351F7
:100F2800080D8D0EF324D96E020EF420DA6EDF5010
:100F380054EC43F09AD00501A451080D8D0EF3240A
:100F4800D96E020EF420DA6EDF50D8B418D0A4514E
:100F5800080D8E0EF324D96E020EF420DA6EDF50DF
:100F68000001B16F0501A451080D8D0EF324D96E4F
:100F7800020EF420DA6EDF5068EC51F076D00101F1
:100F8800752B0001EA05D8A406D001017551FA0FA6
:100F9800BEEC50F06AD00C0E0101756F0001EA0535
:100FA800D8A406D001017551F30FC9EC32F05DD019
:100FB8000001ED51D8B405D059B217D036EC44F041
:100FC80014D0000E9AEC1DF0EA05D8B415EC53F0D5
:100FD8005A04D8B404D0020E5A18D8A406D089C12D
:100FE80036F08AC137F0E3EC40F0000E0101756F6E
:100FF8003CD0752B7505010AD8B426D7030AD8B496
:101008002FD7010AD8B433D7070AD8B453D7010A5F
:10101800D8B476D7030AD8B4B4D7010AD8B4B1D7AC
:101028000F0AD8B4AED7010AD8B4ABD7030AD8B4DC
:10103800A8D7010AD8B4A5D7070AD8B4A2D7010AF5
:10104800D8B4ACD7030AD8B4A9D7010AD8B4A6D75C
:101058001F0AD8B4A3D7010AD8B4A0D7030AD8B4B2
:101068009DD7010AD8B49AD7A3D701018751D8B41C
:10107800A1D248514711461104E1040E455DD8A09C
:1010880099D23C0E056E040E066E780E076E040E9D
:10109800086E87C109F00A6AD9EC4DF087C186F15C
:1010A800000E0101876F3C0E00017B6F040E7C6F00
:1010B80086C17DF078EC29F0030E01010B19D8B434
:1010C800A6D1ADD10001E651D8B424D0F95101011F
:1010D8000019D8A41FD00001E651190D100EF324F1
:1010E800D96E030EF420DA6EDE500101021912E106
:1010F800DE500319D8A40ED008C1ACF009C1ADF078
:10110800E6C0AEF0810E0001AF6F050EB06F73EC54
:1011180024F050D20001FB51D8B499D0FA51010102
:101128000019D8A494D00001FB51190D100EF32416
:10113800D96E030EF420DA6EDE500101021903E1C4
:10114800DE500319D8A483D008C1ACF009C1ADF0B2
:10115800FBC0AEF0920E0001AF6F050EB06F73ECDE
:1011680024F00501A56FA551D8B407D0020E0001DF
:10117800EA6103D00A0E05019F6F000E0101626F3C
:10118800000E616F000E0501A56F020EA56501D066
:1011980011D20001E651D8B422D00501A551040DA1
:1011A800810EF324D96E050EF420DA6EDECFCDF170
:1011B800DECFCEF1DECFCFF1DECFD0F1A551040DD9
:1011C800920EF324D96E050EF420DA6E0101CD518A
:1011D800DE5ECE51DE5ACF51DE5AD051DE5A0501BD
:1011E800A551040D920EF324D96E050EF420DA6E83
:1011F800DECF11F0DECF12F0DECF13F0DECF14F029
:10120800640E156E000E166E000E176E000E186E28
:1012180046EC46F00501A551020DB10EF324D96E36
:10122800010EF420DA6E11C0DEFF12C0DDFFA551F9
:10123800020DB10EF324D96E010EF420DA6EDE50E1
:1012480001016127DD5062230501A52B9ED7090EF8
:101258000101C3612ED0C351080D8E0EF324D96E3F
:10126800020EF420DA6E0051DE18D8A4A3D1C351BF
:10127800080D8D0EF324D96E020EF420DA6EDF50BD
:10128800CD6FCD51190D100EF324D96E030EF42035
:10129800DA6EDE50021903E1DE500319D8A48AD1B0
:1012A80008C1B5F009C1B6F0C3C1B7F0D0EC3BF046
:1012B80081D10001E451D8B486D0F8510101001958
:1012C800D8A481D00001E451190D160EF324D96E6B
:1012D800030EF420DA6EDE500101021937E1DE5008
:1012E8000319D8A433D008C14AF009C14BF0E4C0AF
:1012F8004CF00BEC47F04AC08EF54BC08FF54CC054
:1013080090F54DC091F5020E05019E19D8A408D09C
:101318008EC539F18FC53AF190C53BF191C53CF1C5
:101328000101395105018E5D01013D6F3A510501F9
:101338008F5901013E6F3B510501905901013F6FE3
:101348003C51050191590101406F34D10001E4512C
:10135800190D130EF324D96E030EF420DA6EDE5045
:101368000101021915E1DE500319D8A411D008C1F2
:101378004AF009C14BF0E4C04CF0EBEC41F04AC034
:1013880035F14BC036F14CC037F14DC038F112D1B0
:101398000001E451190D100EF324D96E030EF42048
:1013A800DA6EDE500101021903E1DE500319D8A4F8
:1013B80001D108C1B5F009C1B6F0000E0001B76F40
:1013C800D0EC3BF0F7D0010E01010065F3D0090E17
:1013D8000061F0D002510311D8A409D008C105F06A
:1013E80009C106F00005076EACEC46F0E3D0080E24
:1013F800021902E10305D8A4DDD008C1ACF009C187
:10140800ADF000050001AE6F16EC4CF0D3D00151E1
:10141800030AD8B457D6070AD8B454D6CBD0020E8C
:101428000B19D8A4BCD00A0E0019D8A417D0060EE0
:101438000119D8A413D0A80E02190311D8A40ED0EC
:101448004F0E06190BE1490E0719D8A407D0000161
:10145800DE51D8A403D0DE6917EF01F0020E0001B7
:10146800EA610AD0040E01016C6FCF0E00016C6FA7
:10147800F60E6D6F7EEC51F0090E01010019D8B41B
:1014880080D00001EA51D8A404D001010005D8B4E5
:1014980078D00001EA51D8B48DD0EA510101001981
:1014A800D8B46FD087D0090E0019D8B483D06FECA8
:1014B8004BF080D00BEC49F07DD0200E02190311BF
:1014C800D8A45CD0010E0001EA6558D0EA510101A8
:1014D800CD6FCE6BD890CD37CE3721EE08F0DECF6A
:1014E800CFF1DDCFD0F1CD51CF27CE51D023FE0E95
:1014F800CF25D96EFF0ED021DA6EDF50D16FD151D2
:10150800D36FD26B0001EA510101D46FD56BD8902B
:10151800D437D53721EE08F0DECFD6F1DDCFD7F1BD
:10152800D451D627D551D723FF0ED625D96EFF0E15
:10153800D721DA6EDF50D86FD851D211896FD351C5
:101548008A6F89518A11D8A408D0020E5A18D8A4D3
:1015580004D0000EF8EC4AF00DD05A04D8B404D0E8
:10156800020E5A18D8A406D089C136F08AC137F0BD
:10157800E3EC40F00A0E05019F6F1CD0C8EC3FF069
:1015880019D00151030AD8B48ED7070AD8B48BD71B
:10159800020AD8B48FD7160AD8B48FD70BD0040E46
:1015A8000B19D8B407D02B0E00016C6FFA0E6D6FB3
:1015B8007EEC51F059A271EF01F00A0E05019F1956
:1015C800D8A471EF01F0599271EF01F0C6EF12F053
:1015D800250E4B18D8B431D02C50D96EDA6A020EC9
:1015E800D926DE50DE10D8B413D02C50D96EDA6A62
:1015F800020ED92602D8C6EF12F00500FA6EDE50A8
:10160800FD6EDE50FE6EF850FF6EFA504B50120021
:101618002C50D96EDA6ADECF30F0DDCF31F030C031
:10162800D9FF31C0DAFF4BC0DFFF2C50D96EDA6A20
:10163800DE2A000EDD22C6EF12F0000E4A6E000E02
:10164800496E000E4D6E000E4C6E09D04C8605D0CA
:101658004C8003D04D8601D04C842D4A2E2A2DC0B3
:10166800F6FF2EC0F7FFF86A0F0EF76403D00800E4
:10167800F55005D0F6CFE1FFF7CFE2FFE750200A9B
:10168800D8B4E6D7030AD8B4E5D70E0AD8B4DED75B
:101698001D0AD8B4E1D74CB64C942DC0F6FF2EC025
:1016A800F7FFF86A0F0EF76403D00800F55005D06D
:1016B800F6CFE1FFF7CFE2FFE75006EC53F0D8A0F2
:1016C80047D0000E4A6E000E496E49C005F04AC068
:1016D80006F0000E086E0A0E076E0DEC52F005C0FB
:1016E80049F006C04AF0D00E306EFF0E316E2DC0A4
:1016F800F6FF2EC0F7FFF86A0F0EF76403D0080054
:10170800F55005D0F6CFE1FFF7CFE2FFE750326E94
:10171800336A305032263150332232504926335002
:101728004A222D4A2E2A2DC0F6FF2EC0F7FFF86A4E
:101738000F0EF76403D00800F55005D0F6CFE1FF8F
:10174800F7CFE2FFE75006EC53F0D8A022D0BDD780
:101758002DC0F6FF2EC0F7FFF86A0F0EF76403D00E
:101768000800F55005D0F6CFE1FFF7CFE2FFE750CC
:101778002A0AD8A40ED02F50D96EDA6A020EDF26B4
:10178800DF5CD96EDA6ADECF49F0DECF4AF02D4A47
:101798002E2A2DC0F6FF2EC0F7FFF86A0F0EF76449
:1017A80003D00800F55005D0F6CFE1FFF7CFE2FFF0
:1017B800E7502E0AD8A474D04D8C2D4A2E2A2DC05D
:1017C800F6FF2EC0F7FFF86A0F0EF76403D0080083
:1017D800F55005D0F6CFE1FFF7CFE2FFE7502A0A30
:1017E800D8A416D02F50D96EDA6A020EDF26DF5C35
:1017F800D96EDA6ADECF47F0DECF48F048AE05D0C2
:10180800000E486E000E476E4D9C2D4A2E2A8DD133
:10181800000E486E000E476E2ED047C005F048C037
:1018280006F0000E086E0A0E076E0DEC52F005C0A9
:1018380047F006C048F0D00E306EFF0E316E2DC056
:10184800F6FF2EC0F7FFF86A0F0EF76403D0080002
:10185800F55005D0F6CFE1FFF7CFE2FFE750326E43
:10186800336A3050322631503322325047263350B3
:1018780048222D4A2E2A2DC0F6FF2EC0F7FFF86AFF
:101888000F0EF76403D00800F55005D0F6CFE1FF3E
:10189800F7CFE2FFE75006EC53F0D8A046D1BDD70A
:1018A800000E486E000E476E40D14C883ED14C8CDD
:1018B80074D14C8A4C8E71D12F50D96EDA6A020ECF
:1018C800DF26DF5CD96EDA6ADECF3FF0DECF40F08C
:1018D8003F504010D8A404D0210E3F6EFC0E406E3D
:1018E800000E426E000E416E02D0414A422A41501B
:1018F8003F24306E42504020316E30C0F6FF31C078
:10190800F7FFF86A0F0EF76403D00800F55005D00A
:10191800F6CFE1FFF7CFE2FFE7500009D8A4E5D7FB
:1019280047504810D8B40ED04150475C4850800A00
:10193800306E4250800A3058D8B004D047C041F0C9
:1019480048C042F04950415C4A504258D8B005D08E
:101958004150495E42504A5A04D0000E4A6E000E69
:10196800496E4CA62FD088D02C50D96EDA6A020E58
:10197800D926DE50DE10D8B412D02C50D96EDA6ACF
:10198800020ED92601D81ED00500FA6EDE50FD6E73
:10199800DE50FE6EF850FF6EFA50200E12002C50EA
:1019A800D96EDA6ADECF30F0DDCF31F030C0D9FF42
:1019B80031C0DAFF200EDF6E2C50D96EDA6ADE2ACB
:1019C800000EDD224906D8A04A064928CDE14A285A
:1019D800D8B452D0C9D72C50D96EDA6A020ED9269B
:1019E800DE50DE10D8B424D02C50D96EDA6A020E3C
:1019F800D92601D81AD00500FA6EDE50FD6EDE50E9
:101A0800FE6EF850FF6EFA503FC0F6FF40C0F7FF79
:101A1800F86A0F0EF76403D00800F55005D0F6CF2A
:101A2800E1FFF7CFE2FFE75012003F4A402A24D0F7
:101A38003FC0F6FF40C0F7FFF86A2C50D96EDA6A4B
:101A4800DECF30F0DDCF31F030C0D9FF31C0DAFF62
:101A58000F0EF76403D00800F55005D0F6CFE1FF6C
:101A6800F7CFE2FFE750DF6E3F4A402A2C50D96E8D
:101A7800DA6ADE2A000EDD224106D8A04206412895
:101A8800AAE14228D8A4A7D74CB630D0C6EF12F0A6
:101A98002C50D96EDA6A020ED926DE50DE10D8B480
:101AA80012D02C50D96EDA6A020ED92601D81ED06F
:101AB8000500FA6EDE50FD6EDE50FE6EF850FF6EC9
:101AC800FA50200E12002C50D96EDA6ADECF30F0B0
:101AD800DDCF31F030C0D9FF31C0DAFF200EDF6E24
:101AE8002C50D96EDA6ADE2A000EDD224906D8A00B
:101AF8004A064928CDE14A28D8B4C6EF12F0C8D71B
:101B08002F50D96EDA6ADF50DF2ADF2AD96EDA6AF7
:101B1800DF504B6E4B0E3F6E406A000E426E010E58
:101B2800416EFED6C00E4C1238D02D50306E2E505D
:101B3800316E2D4A2E2A30C0F6FF31C0F7FFF86A01
:101B48000F0EF76403D00800F55005D0F6CFE1FF7B
:101B5800F7CFE2FFE7504B6E4B50000AD8B4E1EFE5
:101B680012F0580AD8B4A5D63B0AD8B4C9D7070A80
:101B7800D8B413D00D0AD8B410D0050AD8B495D665
:101B8800030AD8B494D61C0AD8B496D6060AD8B490
:101B9800C9D70D0AD8B48ED6BDD74CC030F0C00E08
:101BA8003016D8A431D04CA811D02F50D96EDA6A8B
:101BB800040EDF26DF5CD96EDA6ADECF43F0DECFB3
:101BC80044F0DECF45F0DECF46F011D02F50D96E6D
:101BD800DA6ADF50DF2ADF2AD96EDA6ADECF43F00D
:101BE800DDCF44F0000E44BEFF0E456E466E46AE95
:101BF80030D0030E4C12461E451E441E436C000E88
:101C080044224522462225D04CA811D02F50D96E07
:101C1800DA6A040EDF26DF5CD96EDA6ADECF43F0BB
:101C2800DECF44F0DECF45F0DECF46F012D02F50A5
:101C3800D96EDA6ADF50DF2ADF2AD96EDA6ADECF98
:101C480030F0DDCF31F030C043F031C044F0456AA8
:101C5800466A47504810D8A463D0435044104510F2
:101C68004610D8A45DD0474A482A5AD0010E4B6E78
:101C78000A0E4B18D8B462D04B50040D470EF3240B
:101C8800F66EDE0EF420F76E0900F550435C09008D
:101C9800F55044580900F55045580900F550465884
:101CA800D8A04CD04B2AE4D7010E4B6E080E4B1827
:101CB800D8B444D04B50040D6F0EF324F66EDE0EEC
:101CC800F420F76E0900F550435C0900F5504458BC
:101CD8000900F55045580900F5504658D8A02ED0AF
:101CE8004B2AE4D7010E4B6E0B0E4B18D8B426D0F6
:101CF8004B50040D1B0EF324F66EDE0EF420F76E27
:101D08000900F550435C0900F55044580900F550A6
:101D180045580900F5504658D8A010D04B2AE4D7AA
:101D28004C50C00B000AD8B4A1D7400AD8B4DAD7AF
:101D3800C00AD8B4B9D7400AD8B498D74B50306E37
:101D4800316A4750305C3150800A326E4850800A00
:101D58003258D8B003D047C04BF010D04B50306E3B
:101D6800316A3050475C4850800A326E3150800AE0
:101D78003258D8B003D04BC047F0486A49504A108F
:101D8800D8B409D04CC030F0030E3016D8B403D004
:101D98004906D8A04A064DAC13D04950475C485074
:101DA800800A306E4A50800A3058D8B005D0475063
:101DB800495E48504A5A04D0000E4A6E000E496ED9
:101DC800C40E306E080E316E4CC032F04DC033F088
:101DD8003050321631503316400E32180CE1080ECE
:101DE8003318D8A408D049504A10D8B428D0490686
:101DF800D8A04A0624D0C00E306E080E316E4CC0F2
:101E080032F04DC033F03050321631503316800E58
:101E1800321815E1080E3318D8A411D04ABE0BD0D9
:101E28004A5004E1030E495CD8A005D0FE0E4926AD
:101E3800FF0E4A2204D0000E4A6E000E496E4B5027
:101E4800306E316A4950305C3150800A326E4A50E7
:101E5800800A3258D8B005D04B50495E000E4A5A15
:101E680004D0000E4A6E000E496E4CA412D14CC02C
:101E780030F0030E3016D8B428D02C50D96EDA6A58
:101E8800020ED926DE50DE10D8B412D02C50D96EEE
:101E9800DA6A020ED92601D8C6D00500FA6EDE50DD
:101EA800FD6EDE50FE6EF850FF6EFA502D0E1200D9
:101EB8002C50D96EDA6ADECF30F0DDCF31F030C089
:101EC800D9FF31C0DAFF2D0E29D04CA029D02C50D3
:101ED800D96EDA6A020ED926DE50DE10D8B412D0D6
:101EE8002C50D96EDA6A020ED92601D89CD005008A
:101EF800FA6EDE50FD6EDE50FE6EF850FF6EFA5040
:101F0800200E12002C50D96EDA6ADECF30F0DDCF09
:101F180031F030C0D9FF31C0DAFF200EDF6E7DD03E
:101F2800C00E306E080E316E4CC032F04DC033F02A
:101F38003050321631503316800E321874E1080EC4
:101F48003318D8A470D02C50D96EDA6A020ED9266C
:101F5800DE50DE10D8B412D02C50D96EDA6A020ED8
:101F6800D92601D81ED00500FA6EDE50FD6EDE506F
:101F7800FE6EF850FF6EFA50300E12002C50D96EDB
:101F8800DA6ADECF30F0DDCF31F030C0D9FF31C0B2
:101F9800DAFF300EDF6E2C50D96EDA6ADE2A000EB8
:101FA800DD222C50D96EDA6A020ED926DE50DE10F8
:101FB800D8B41CD04CBA04D0000E366E780E03D0BC
:101FC800000E366E580E356E2C50D96EDA6A020E37
:101FD800D92601D828D00500FA6EDE50FD6EDE50F5
:101FE800FE6EF850FF6EFA50355012004CBA04D00D
:101FF800000E386E780E03D0000E386E580E376E0D
:102008002C50D96EDA6ADECF30F0DDCF31F030C037
:10201800D9FF31C0DAFF37C0DFFF2C50D96EDA6A3A
:10202800DE2A000EDD2249504A10D8B466D22C5060
:10203800D96EDA6A020ED926DE50DE10D8B412D074
:102048002C50D96EDA6A020ED92601D81ED00500A6
:10205800FA6EDE50FD6EDE50FE6EF850FF6EFA50DE
:10206800300E12002C50D96EDA6ADECF30F0DDCF98
:1020780031F030C0D9FF31C0DAFF300EDF6E2C509E
:10208800D96EDA6ADE2A000EDD224906D8A04A0691
:10209800CAD749504A10D8A44CB635D02C50D96E5E
:1020A800DA6A020ED926DE50DE10D8B412D02C50CF
:1020B800D96EDA6A020ED92601D81ED00500FA6E4A
:1020C800DE50FD6EDE50FE6EF850FF6EFA50200EA8
:1020D80012002C50D96EDA6ADECF30F0DDCF31F045
:1020E80030C0D9FF31C0DAFF200EDF6E2C50D96E18
:1020F800DA6ADE2A000EDD224906D8A04A064950CF
:102108004A10D8A4CBD74CC030F0030E3016D8B440
:1021180028D02C50D96EDA6A020ED926DE50DE108D
:10212800D8B412D02C50D96EDA6A020ED92601D84A
:1021380048D00500FA6EDE50FD6EDE50FE6EF85097
:10214800FF6EFA502D0E12002C50D96EDA6ADECFCF
:1021580030F0DDCF31F030C0D9FF31C0DAFF2D0EBD
:1021680029D04CA02ED02C50D96EDA6A020ED9266E
:10217800DE50DE10D8B412D02C50D96EDA6A020EB6
:10218800D92601D81ED00500FA6EDE50FD6EDE504D
:10219800FE6EF850FF6EFA50200E12002C50D96EC9
:1021A800DA6ADECF30F0DDCF31F030C0D9FF31C090
:1021B800DAFF200EDF6E2C50D96EDA6ADE2A000EA6
:1021C800DD22C00E306E080E316E4CC032F04DC0AC
:1021D80033F03050321631503316400E32182DE19C
:1021E800080E3318D8A429D02C50D96EDA6A020EFA
:1021F800D926DE50DE10D8B412D02C50D96EDA6A47
:10220800020ED92601D879D10500FA6EDE50FD6E8E
:10221800DE50FE6EF850FF6EFA50300E12002C5051
:10222800D96EDA6ADECF30F0DDCF31F030C0D9FFB9
:1022380031C0DAFF300EDF6E5AD1C00E306E080E94
:10224800316E4CC032F04DC033F030503216315040
:102258003316800E321803E1080E3318D8A44DD176
:102268002C50D96EDA6A020ED926DE50DE10D8B4A8
:1022780012D02C50D96EDA6A020ED92601D81ED097
:102288000500FA6EDE50FD6EDE50FE6EF850FF6EF1
:10229800FA50300E12002C50D96EDA6ADECF30F0C8
:1022A800DDCF31F030C0D9FF31C0DAFF300EDF6E3C
:1022B8002C50D96EDA6ADE2A000EDD222C50D96E37
:1022C800DA6A020ED926DE50DE10D8B41CD04CBA19
:1022D80004D0000E3A6E780E03D0000E3A6E580EF7
:1022E800396E2C50D96EDA6A020ED92601D805D17A
:1022F8000500FA6EDE50FD6EDE50FE6EF850FF6E81
:10230800FA50395012004CBA04D0000E3C6E780EC8
:1023180003D0000E3C6E580E3B6E2C50D96EDA6A14
:10232800DECF30F0DDCF31F030C0D9FF31C0DAFF79
:102338003BC0DFFFDCD047C030F048C031F0D89058
:1023480030363136D89030363136470E3024F66E76
:10235800DE0E3120F76E0900F5CF15F00900F5CF34
:1023680016F00900F5CF17F00A00F5CF18F043C0B2
:1023780011F044C012F045C013F046C014F0B7EC99
:102388004AF011C023F012C024F013C025F014C085
:1023980026F00A0E276E000E286E000E296E000E1B
:1023A8002A6EE8EC4CF0235069D043C011F044C0C9
:1023B80012F045C013F046C014F047C030F048C0D2
:1023C80031F0D89030363136D890303631366F0EFD
:1023D8003024F66EDE0E3120F76E0900F5CF15F0C9
:1023E8000900F5CF16F00900F5CF17F00A00F5CF70
:1023F80018F0B7EC4AF011500F0B346E4CBA04D0F9
:10240800F80E3D6EF90E03D0E70E3D6EF90E3E6EE6
:1024180034503D24306E000E3E20316E30C0F6FF41
:1024280031C0F7FF0800F5CF4BF039D043C011F0A9
:1024380044C012F045C013F046C014F047C030F055
:1024480048C031F0D89030363136D89030363136F1
:102458001B0E3024F66EDE0E3120F76E0900F5CF24
:1024680015F00900F5CF16F00900F5CF17F00A00AE
:10247800F5CF18F0B7EC4AF01150070B300F4B6E40
:102488000ED04C50C00B000AD8B455D7400AD8B467
:10249800CDD7C00AD8B489D7400AD8B44CD72C5065
:1024A800D96EDA6A020ED926DE50DE10D8B412D000
:1024B8002C50D96EDA6A020ED92601D81ED0050032
:1024C800FA6EDE50FD6EDE50FE6EF850FF6EFA506A
:1024D8004B5012002C50D96EDA6ADECF30F0DDCFC7
:1024E80031F030C0D9FF31C0DAFF4BC0DFFF2C50CC
:1024F800D96EDA6ADE2A000EDD224706D8A0480621
:102508004728BFE14828D8A4BCD74CB64ABE3AD021
:102518004A5003E14904D8A035D02C50D96EDA6A64
:10252800020ED926DE50DE10D8B412D02C50D96E47
:10253800DA6A020ED92601D81ED00500FA6EDE50DE
:10254800FD6EDE50FE6EF850FF6EFA50200E12003F
:102558002C50D96EDA6ADECF30F0DDCF31F030C0E2
:10256800D9FF31C0DAFF200EDF6E2C50D96EDA6A3F
:10257800DE2A000EDD224906D8A04A0649504A1034
:10258800D8A4CBD72D50306E2E50316E2D4A2E2A1E
:1025980030C0F6FF31C0F7FFF86A0F0EF76403D0BA
:1025A8000800F55005D0F6CFE1FFF7CFE2FFE7507E
:1025B8004B6E4B50D8A4ECEF0AF0000E2D6E000EB7
:1025C8002C6E120086EC2EF0BC6F8D0E6C6FF30E25
:1025D8006D6F7EEC51F00001E051D8A450D0000E90
:1025E800C26F25D0340E056E020E066E660EC22529
:1025F800D96EDA6A020EDA22DF50B46FB4514B0D8D
:102608008F0EF324076EDE0EF420086E7BEC4DF07F
:1026180005500610D8A409D0660E0001C225D96E4F
:10262800DA6A020EDA22DF50E06F0001C22BFF0ED9
:10263800B46FFF0EB56FBC51B66FB76BB451B62708
:10264800B551B723C251B86FB96BB651B85DB9511E
:10265800800ABA6FB751800ABA59D8A0C3D7340EC6
:10266800056E020E066E590E076EFC0E086E7BECA8
:102678004DF005500610D8A44AD2320E05D00201FA
:102688003451D8A414D2000E0001E06F40D2000EDD
:10269800C16F340EC125D96EDA6A020EDA22DF5014
:1026A800C26F2E0EC219D8A416D0350EC125D96E08
:1026B800DA6A020EDA22340EC125E16EE26A020EEF
:1026C800E222DFCFE7FF350EC125D96EDA6A020EA6
:1026D800DA22000EDF6EC12BC251D8A4DAD7340E2D
:1026E8000B6E020E0C6EDFEC45F00BC0BDF00CC09B
:1026F800BEF00001BE5104E13C0EBD5DD8A006D07D
:10270800210EBD5D030EBE59D8A007D0880E6C6F90
:10271800F50E6D6F7EEC51F0F4D1BDC005F0BEC072
:1027280006F0076A086A0A0E096E000E0A6E000EA5
:102738000B6E000E0C6E06EC4EF00A0ED8900536A5
:10274800063607360836E82EF9D7000E0524116E2E
:10275800140E0620126E000E0720136E000E0820BD
:10276800146E57C115F058C116F0176A186AB7ECFD
:102778004AF011C0C7F112C0C8F113C0C9F114C0A2
:10278800CAF1F4EC2CF0BDD1340E056E020E066EC3
:102798000E0E076EFB0E086E7BEC4DF00550061012
:1027A800D8A402D0020E0FD0340E056E020E066EAB
:1027B800D00E076EFC0E086E7BEC4DF0055006102F
:1027C800D8A404D0010E0001ED6FDBD7340E056EDE
:1027D800020E066E6E0E076EFC0E086E7BEC4DF058
:1027E80005500610D8A48DD1000E0001ED6FF4EC51
:1027F8002CF0000E596E85D1340E056E020E066E51
:10280800C00E076EFB0E086E7BEC4DF005500610EF
:10281800D8A402D0010E1FD0340E056E020E066E2B
:10282800CA0E076EFC0E086E7BEC4DF005500610C4
:10283800D8A402D0020E0FD0340E056E020E066E1A
:10284800090E076EFC0E086E7BEC4DF00550061065
:10285800D8A457D1000E0001EC6F93D7340E056E43
:10286800020E066EC40E076EFC0E086E7BEC4DF071
:1028780005500610D8A402D0010E0FD0340E056EF4
:10288800020E066E750E076EFC0E086E7BEC4DF0A0
:1028980005500610D8A435D1000E0001EB6F71D792
:1028A800000EC26F340E056E020E066EC251090D7F
:1028B800860EF324076EF10EF420086E7BEC4DF0C3
:1028C80005500610D8A404D0C2C0EAF0F4EC2CF0ED
:1028D8000001C22B080EC265E5D713D1000EC26FE6
:1028E800340E056E020E066EC2510A0D130EF32445
:1028F800076EF20EF420086E7BEC4DF005500610C2
:10290800D8A404D0C2C0E9F0F4EC2CF00001C22B2A
:10291800040EC265E5D7F5D0000EC26F340E056E01
:10292800020E066EC2510A0D450EF324076EF20E12
:10293800F420086E7BEC4DF005500610D8A404D0A6
:10294800C2C0E5F0F4EC2CF00001C22B010EC26508
:10295800E5D7D7D0340E056E020E066E090E076E47
:10296800FC0E086E7BEC4DF005500610D8A402D082
:10297800000E0FD0340E056E020E066E670E076E3F
:10298800FC0E086E7BEC4DF005500610D8A4B9D0AB
:10299800010E0001E86FF5D6000EC26F340E056E09
:1029A800020E066EC251190D000EF324076E030EB7
:1029B800F420086E7BEC4DF005500610D8A410D01A
:1029C8000001C205D8A404D00A0EE019D8B408D072
:1029D800C2C0AEF0AF6BE05109EC30F0F4EC2CF073
:1029E8000001C22B080EC265D9D78BD0340E056EF4
:1029F800020E066EEB0E076EFC0E086E7BEC4DF0B9
:102A080005500610D8A402D0000E0FD0340E056E63
:102A1800020E066EE60E076EFC0E086E7BEC4DF09D
:102A280005500610D8A46DD0010E0001E76FA9D695
:102A3800000EC26F340E056E020E066EC2510A0DEC
:102A4800D70EF324076EF10EF420086E7BEC4DF0E0
:102A580005500610D8A404D0C2C0E3F0F4EC2CF062
:102A68000001C22B050EC265E5D74BD0340E0B6EA4
:102A7800020E0C6EDFEC45F00BC0BFF00CC0C0F0CE
:102A8800BFC0AEF0C0C0AFF00001E05109EC30F0BB
:102A98000001BB6FF4EC2CF00001BB51D8A431D07D
:102AA800C10E6C6FF70E6D6F7EEC51F02AD00001ED
:102AB800E051020AD8B4D2D6010AD8B49DD6050A84
:102AC800D8B4EED6010AD8B409D70F0AD8B442D779
:102AD800010AD8B4ADD7030AD8B45ED7060AD8B469
:102AE80053D6020AD8B418D7010AD8B4D0D51B0ACD
:102AF800D8B452D7020AD8B479D7010AD8B44CD777
:102B0800B5D7000E0001E06F86EC2EF0BC6F010E09
:102B18000001E0651CD0250EE06119D0D50E6C6F60
:102B2800F90E6D6FE0514B0D110EF326000EF422D5
:102B38008F0EF3246E6FDE0EF4206F6FE05176EC8B
:102B480027F065C070F066C071F07EEC51F0100E91
:102B58000001E019D8B408D0050EE019D8B404D0A3
:102B68000D0EE019D8A4BED2180E6C6FF40E6D6F5E
:102B78007EEC51F02F0E00016C6FF50E6D6F7EEC40
:102B880051F0B0D2FC0E6C6FF20E6D6F7EEC51F00E
:102B98007C0E00016C6FFB0E6D6F7EEC51F0090E20
:102BA80000016C6FF60E6D6F7EEC51F05C0E00014B
:102BB8006C6FF60E6D6FDF516E6F6F6B6EBF6F07C8
:102BC80059C170F05AC171F07EEC51F0470E000106
:102BD8006C6FF30E6D6F7EEC51F0000E0001C26F4A
:102BE80095D01A0E6C6FFA0E6D6F660EC225D96EEF
:102BF800DA6A020EDA22DF50B46FB4514B0D8F0E31
:102C0800F3246E6FDE0EF4206F6F660EC225D96E48
:102C1800DA6A020EDA22DF50B56FB5514B0D110E8C
:102C2800F326000EF4228F0EF324706FDE0EF420CC
:102C3800716F7EEC51F0660E0001C225D96EDA6A1A
:102C4800020EDA220F0EDE18D8A448D0000EC16F8B
:102C5800020EC16501D051D0390E6C6FFA0E6D6F3E
:102C6800010EC1256E6F6F6B000E6F23C151020DEF
:102C7800B10EF324D96E010EF420DA6EDECF0BF01C
:102C8800DDCF0CF0000E0E6E0A0E0D6E75EC4AF0DC
:102C98000BC070F00CC071F00001C151020DB10EF3
:102CA800F324D96E010EF420DA6EDECF1FF0DDCFEB
:102CB80020F0BEEC51F01FC023F020C024F0000E1D
:102CC800266E0A0E256ED1EC4FF023C072F024C098
:102CD80073F07EEC51F00001C12BBAD7660EC22505
:102CE800D96EDA6A020EDA22DF5076EC27F065C078
:102CF8006CF066C06DF07EEC51F08D0E00016C6FCB
:102D0800F30E6D6F7EEC51F00001C22BFF0EB46F15
:102D1800FF0EB56FBC51B66FB76BB451B627B5513E
:102D2800B723C251B86FB96BB651B85DB951800AB3
:102D3800BA6FB751800ABA59D8A053D7F90E6C6F39
:102D4800FC0E6D6F7EEC51F012D2330E6C6FF60EE6
:102D58006D6F7EEC51F00BD2B30E6C6FF50E6D6F8C
:102D68007EEC51F004D2DE0E6C6FF50E6D6FE05103
:102D78004B0D450EF326000EF4228F0EF324F66E4B
:102D8800DE0EF420F76E0900F5CF6EF00A00F5CFDD
:102D98006FF0E0514B0D470EF326000EF4228F0E14
:102DA800F324F66EDE0EF420F76E0900F5CF70F00E
:102DB8000A00F5CF71F07EEC51F0D9D14C0E6C6F52
:102DC800F70E6D6F860E6E6FF10E6F6F7EEC51F021
:102DD800010E0001C26FEF0E6C6FFC0E6D6FC251D9
:102DE800090D860EF3246E6FF10EF4206F6F7EECE2
:102DF80051F00001C22B080EC265EDD7C10E6C6FF1
:102E0800F40E6D6F7EEC51F0B2D1FA0E6C6FF40EC9
:102E18006D6F7EEC51F0ABD1D60E6C6FF80E6D6F06
:102E2800130E6E6FF20E6F6F7EEC51F0010E000103
:102E3800C26FEF0E6C6FFC0E6D6FC2510A0D130E50
:102E4800F3246E6FF20EF4206F6F7EEC51F00001E8
:102E5800C22B040EC265EDD7C10E6C6FF40E6D6FF8
:102E68007EEC51F084D15C0E6C6FF50E6D6F7EECCC
:102E780051F07DD1350E6C6FF80E6D6F7EEC51F010
:102E880076D1570E6C6FF40E6D6FB1C10BF0B2C1F5
:102E98000CF0000E0E6E0A0E0D6E75EC4AF00BC0AB
:102EA8006EF00CC06FF0B1C11FF0B2C120F0BEECE3
:102EB80051F01FC023F020C024F0000E266E0A0E29
:102EC800256ED1EC4FF023C070F024C071F07EEC79
:102ED80051F04DD1C20E6C6FF90E6D6F000E6E6F12
:102EE800030E6F6F7EEC51F0010E0001C26FC20538
:102EF800D8A404D00A0EE019D8B40ED0EF0E6C6F27
:102F0800FC0E6D6FC251190D000EF3246E6F030E87
:102F1800F4206F6F7EEC51F00001C22B080EC265E1
:102F2800E6D7C10E6C6FF40E6D6F7EEC51F01FD1B9
:102F3800C50E6C6FF40E6D6F7EEC51F018D1AC0EAF
:102F48006C6FF20E6D6F7EEC51F011D18F0E6C6FBD
:102F5800F40E6D6F7EEC51F00AD1A90E6C6FF60E6F
:102F68006D6F7EEC51F003D12D0E6C6FF70E6D6F07
:102F7800D70E6E6FF10E6F6F7EEC51F0010E0001EF
:102F8800C26FEF0E6C6FFC0E6D6FC2510A0DD70E3B
:102F9800F3246E6FF10EF4206F6F7EEC51F0000198
:102FA800C22B050EC265EDD7C10E6C6FF40E6D6FA6
:102FB8007EEC51F0DCD0000EC06F000EBF6FC05128
:102FC80063E1080EBF5DD8B05FD0AF0E6C6FF90E2D
:102FD8006D6FBFC06EF0C0C06FF0290EBF25D96EEF
:102FE800010EC021DA6EDF50B46F410EB425706F48
:102FF800716B000E7123D890BF35D96EC035DA6E6B
:10300800890ED926010EDA22DECF23F0DDCF24F097
:10301800000E266E0A0E256E5BEC4EF023C072F091
:1030280024C073F0D8900001BF35D96EC035DA6E70
:10303800890ED926010EDA22DECF23F0DDCF24F067
:10304800000E266E0A0E256ED1EC4FF023C074F0E8
:1030580024C075F07EEC51F00001C0510BE1070E61
:10306800BF5DD8B007D0F70E6C6FFC0E6D6F7EECAD
:1030780051F006D08D0E6C6FF30E6D6F7EEC51F033
:103088000001BF4BC02B9BD7000EE06F70D0A30E82
:103098006C6FF80E6D6FE0514B0D450EF326000E68
:1030A800F4228F0EF324F66EDE0EF420F76E09007C
:1030B800F5CF6EF00A00F5CF6FF0E0514B0D470EDB
:1030C800F326000EF4228F0EF324F66EDE0EF420A3
:1030D800F76E0900F5CF70F00A00F5CF71F07EECBD
:1030E80051F045D00001E051000AD8B44BD5020A8E
:1030F800D8B42BD6010AD8B488D6050AD8B45ED677
:10310800010AD8B489D60F0AD8B4ADD6010AD8B402
:103118002BD7030AD8B4DED6060AD8B41DD6020ABD
:10312800D8B4A8D6010AD8B4ACD61E0AD8B41BD6CF
:10313800050AD8B4CFD6020AD8B4FAD6010AD8B448
:10314800C9D60E0AD8B4FBD6030AD8B4FFD6070AE4
:10315800D8B403D7020AD8B400D73E0AD8B4FDD6EB
:10316800020AD8B4FAD6110AD8B425D790D7000ED7
:103178000101856F000E0001E16F120001017E2B35
:103188007D51D8B453D0090E7D19D8A448D07C51AC
:10319800D8B445D0020E0001DD19D8A408D0700EAD
:1031A800216EFA0E226E000ED2EC51F035D0030ECD
:1031B800DD19D8A408D0630E216EFA0E226E000E17
:1031C800D2EC51F029D0040EDD19D8A408D04B0E4A
:1031D800216EF90E226E000ED2EC51F01DD0050EB4
:1031E800DD19D8A408D0600E216EF90E226E000EEB
:1031F800D2EC51F011D0060EDD19D8A408D09C0EDF
:10320800216EF90E226E000ED2EC51F005D0000EA0
:103218000A6E000EB8EC52F0000E01017E6F780EB7
:103228007E651200000E7D6F1EEC34F001017E05F4
:10323800D8A403D0000E686F0BD0040E7E6508D0AA
:10324800010E7E6F0001DC510108DC6F0101682B63
:103258005950D8B4AED089863C0E7F6F59A21DD084
:103268009C0E1A6EFB0E1B6E000E56EC52F0930E5F
:103278001A6EFA0E1B6E020E56EC52F0880E1A6E7B
:10328800FC0E1B6E040E56EC52F0360E1A6EFC0E37
:103298001B6E060E56EC52F0120059A41DD0000EFB
:1032A8001A6EFB0E1B6E000E56EC52F08E0E1A6E46
:1032B800FC0E1B6E020E56EC52F08A0E1A6EFB0EB6
:1032C8001B6E040E56EC52F0D10E1A6EFB0E1B6EDE
:1032D800060E56EC52F0120059A83ED00001DC51FF
:1032E800D8A41DD0930E1A6EFB0E1B6E000E56EC62
:1032F80052F0A00E1A6EFC0E1B6E020E56EC52F027
:10330800E90E1A6EFB0E1B6E040E56EC52F0810E7F
:103318001A6EFB0E1B6E060E56EC52F01200940E3F
:103328001A6EFC0E1B6E000E56EC52F03D0E1A6E15
:10333800FC0E1B6E020E56EC52F0AB0E1A6EFB0E14
:103348001B6E040E56EC52F09A0E1A6EFC0E1B6E93
:10335800060E56EC52F0120059AC1AD0F90E1A6E3D
:10336800FB0E1B6E020E56EC52F0B60E4E6E4F6AF6
:10337800D50E506EFA0E516EDEC052F0536A51EC03
:1033880050F0B60E1A6E1B6A040E56EC52F012007C
:1033980059AE0FD09E0E1A6EFA0E1B6E020E56EC28
:1033A80052F0A90E1A6EFA0E1B6E040E56EC52F06D
:1033B8001200500E0001DE19D8A40FD0F90E1A6EB3
:1033C800FB0E1B6E020E56EC52F04B0E1A6EFC0EE4
:1033D8001B6E040E56EC52F01200ED51D8B403D017
:1033E8005750D8A4BBD0000E0A6E000EB8EC52F0AD
:1033F800040E0A6E010EB8EC52F0100E0A6E060E9C
:10340800B8EC52F0000E0A6E070EB8EC52F059A054
:103418000FD0E10E1A6EFB0E1B6E020E56EC52F028
:10342800140E1A6EFB0E1B6E040E56EC52F075D37A
:10343800020E5A18D8A436D03C0E01017F6F8A0EAE
:103448001A6EFB0E1B6E020E56EC52F0B60E4E6E46
:103458004F6A280E506EFC0E516E89C123F08AC146
:1034680024F0000E266E0A0E256E5BEC4EF023C08B
:1034780052F024C053F089C123F08AC124F0000E11
:10348800266E0A0E256ED1EC4FF023C054F024C0EE
:1034980055F051EC50F0B60E1A6E1B6A040E56EC3D
:1034A80052F03BD35750D8B424D0A50E1A6EFB0E59
:1034B8001B6E020E56EC52F0B60E4E6E4F6A280E78
:1034C800506EFB0E516E58C052F0536A51EC50F0DA
:1034D8005850D8B404D03C0E01017F6F03D0000EC1
:1034E8000001BC6FB60E1A6E1B6A040E56EC52F041
:1034F80014D30001E351D8B422D0070EDD19D8A4A3
:103508000FD0D90E1A6EFB0E1B6E020E56EC52F03F
:10351800F60E1A6EFA0E1B6E040E56EC52F0FDD221
:10352800F10E1A6EFB0E1B6E020E56EC52F0F60EE2
:103538001A6EFA0E1B6E040E56EC52F0EED2440EC2
:103548001A6EFC0E1B6E020E56EC52F02F0E1A6EFF
:10355800FC0E1B6E040E56EC52F0DFD2ED05D8B40B
:1035680004D0020EED19D8A4D8D2A60E056E050E09
:10357800066E2C0E076EEF0E086E020E0A6E000E17
:10358800096ED9EC4DF00001ED05D8A418D0000E55
:10359800C46F0C0EC46501D012D0F00EC425D96ECC
:1035A800DA6A050EDA22000EDF6E700EC425D96EB7
:1035B800DA6A060EDA22000EDF6EC42BEAD70101A2
:1035C80055515611D8B43CD055C1C2F056C1C3F0BC
:1035D800C2C023F0C3C024F0000E266E3C0E256E38
:1035E8005BEC4EF023C0B4F024C0B5F0C2C023F0A9
:1035F800C3C024F0000E266E3C0E256ED1EC4FF0B1
:1036080023C0C2F024C0C3F0B60E4E6E4F6A320E0D
:10361800506EFB0E516EB4C052F0B5C053F0C2C02C
:1036280054F0C3C055F051EC50F0000E186EB60EB1
:10363800196E1A6A000E1B6E640EA5EC44F011D0C8
:10364800000E0001C46F070EC46501D00AD0020E37
:10365800C425D96EDA6A060EDA22000EDF6EC42B94
:10366800F2D7010162AF07D0030EC25F140EC26128
:1036780009D02C0E06D0030EC2272C0EC26502D02C
:10368800140EC26FC2C153F1546B000EB86F030E13
:10369800B76F61C11FF062C120F0BEEC51F020BECF
:1036A8000ED0205004E1040E1F5CD8A008D0000EF4
:1036B8000C6E0A0E0B6E000E0D6E68EC41F00001E8
:1036C800E451D8B41ED0B60E656FCA0E666FFA0EF6
:1036D800676F3DC168F03EC169F03FC16AF040C103
:1036E8006BF0030E6C6F010E6D6F13EC3BF0010E67
:1036F800186EB60E196E1A6A000E1B6E590EA5ECDE
:1037080044F002019051D8B410D0000E0101546F5A
:103718006E0E536F000EB86F020EB76F90C20BF0AB
:103728000C6A0A0E0D6E68EC41F0020E5A18D8A405
:1037380088D03C0E01017F6F030EC127590EC16569
:1037480002D04A0EC16FC1C153F1546B000EB86F5D
:10375800030EB76F000E0C6E0A0E0B6E000E0D6E88
:1037680068EC41F00001DC51D8B44FD0E451D8B432
:103778004CD0010138BF09D03851371126E1DE0E8F
:10378800355D260E3659D8B020D0B60E0001656FCB
:103798001E0E666FFB0E676F35C168F036C169F0A3
:1037A80037C16AF038C16BF0030E6C6F010E6D6F94
:1037B80013EC3BF0020E186EB60E196E1A6A000E64
:1037C8001B6E490EA5EC44F03CD0B60E0001656FA7
:1037D800A60E666FFC0E676F35C168F036C169F0DA
:1037E80037C16AF038C16BF0030E6C6F000E6D6F55
:1037F80013EC3BF0020E186EB60E196E1A6A000E24
:103808001B6E4B0EA5EC44F01CD0B60E656FE10E96
:10381800666FFC0E676F89C168F08AC169F06A6BD0
:103828006B6B010E6C6F000E6D6F13EC3BF0020EAC
:10383800186EB60E196E1A6A000E1B6E4D0EA5ECA8
:1038480044F00001DC51D8B436D0020EED19D8A4EA
:1038580032D0000E0101546F290E536F000EB86F5D
:10386800010EB76F000E0C6E0B0E0B6E000E0D6E78
:1038780068EC41F0B60E0001656FDC0E666FFC0E59
:10388800676F61C168F062C169F0000E69BFFF0E21
:103898006A6F6B6F010E6C6F000E6D6F13EC3BF06F
:1038A800020E186EB60E196E1A6A000E1B6E170EEF
:1038B800A5EC44F030D0000EC46F020EC46501D0F0
:1038C8002AD0B60E656FDC0E666FFC0E676FC451AA
:1038D800020DB10EF324D96E010EF420DA6EDECF9C
:1038E80068F0DDCF69F0000E69BFFF0E6A6F6B6F7D
:1038F800010E6C6F000E6D6F13EC3BF0C4C018F036
:10390800B60E196E1A6A000E1B6E170EA5EC44F05F
:103918000001C42BD2D7040E0A6E000E44EC4FF0FF
:10392800000E0A6E040EB8EC52F059A014D0000133
:10393800DC51D8A408D0E10E1A6EFB0E1B6E050EE2
:1039480056EC52F0E5D0140E1A6EFB0E1B6E050EE7
:1039580056EC52F0DDD059AA14D00001DC51D8A49D
:1039680008D0E10E1A6EFB0E1B6E050E56EC52F0D7
:10397800CFD00A0E1A6EFB0E1B6E050E56EC52F0D7
:10398800C7D0020E5A18D8B41DD0B60E4E6E4F6A64
:10399800AE0E506EFB0E516E58C052F0536A51EC89
:1039A80050F05850D8B404D03C0E01017F6F03D0BA
:1039B800000E0001BB6FB60E1A6E1B6A050E56ECA0
:1039C80052F0A6D0020E5A18D8B493D0A1D0000E47
:1039D800686F0001ED51D8B414D0020EED19D8A4C7
:1039E80008D00E0E1A6EFB0E1B6E050E56EC52F02A
:1039F8008FD0D00E1A6EFC0E1B6E050E56EC52F0D0
:103A080087D00101682B8A0E1A6EFB0E1B6E050EFD
:103A180056EC52F07DD00001E451D8B41BD0B60E5C
:103A2800656FB40E666FFA0E676F35C168F036C100
:103A380069F037C16AF038C16BF0030E6C6F010E84
:103A48006D6F13EC3BF0B60E1A6E1B6A050E56EC42
:103A580052F05ED00101682B0001E451D8B41BD0AC
:103A6800B60E656F7C0E666FFA0E676F3DC168F023
:103A78003EC169F03FC16AF040C16BF0030E6C6F44
:103A8800020E6D6F13EC3BF0B60E1A6E1B6A050E34
:103A980056EC52F03DD00101682BB60E4E6E4F6ABF
:103AA800C90E506EFB0E516E89C123F08AC124F0F5
:103AB800000E266E0A0E256E5BEC4EF023C052F007
:103AC80024C053F089C123F08AC124F0000E266E69
:103AD8000A0E256ED1EC4FF023C054F024C055F0E7
:103AE80051EC50F0B60E1A6E1B6A050E56EC52F0E9
:103AF8000FD001016851010AD8B485D7030AD8B498
:103B08008AD7010AD8B4A8D7070AD8B4C6D75FD7C6
:103B1800000E0A6E070EB8EC52F001017F51D8B4BE
:103B280003D089867F071200899612000001BC6FB6
:103B3800000E0001CA6F000EC96F000EBE6F000EA6
:103B4800BD6F000EBB6F000EBA6F20EEB0F0070E0F
:103B5800DE6AE806FDE2EA51D8B46DEC50F0020ED8
:103B680001012919D8A415D00001F451D95DF551E6
:103B7800DA59D8B00ED0EB51D8A40BD0D9C005F083
:103B8800DAC006F0000E086E0A0E076E0DEC52F051
:103B98000AD0F4C005F0F5C006F0000E086E0A0E53
:103BA800076E0DEC52F005C065F106C066F1010123
:103BB80063516411D8B404D063C165F164C166F17E
:103BC800020E0001EA6104D065C100F266C101F28B
:103BD800000ECB6F290ECB25D96EDA6A010EDA22D8
:103BE800020EDE18D8A41AD0C94BCA2BCB51020D2D
:103BF800000EF324D96E020EF420DA6EDE50BD27D3
:103C0800DD50BE23CB51020D890EF324D96E010E6F
:103C1800F420DA6EDE50BA27DD50BB23CB2B070E1B
:103C2800CB65D8D7BC51D8A452D0020EED19D8B460
:103C38004ED0F6C005F0F7C006F0000E086E0A0E6A
:103C4800076E0DEC52F00001D751055CC36FD851D7
:103C58000658C46FC4BF10D0C45103E1C305D8A02F
:103C68000BD0C3C00BF0C4C00CF0000E0E6E040ED7
:103C78000D6E75EC4AF014D0C3C005F0C4C006F050
:103C8800000E086E640E076E0DEC52F005C00BF0C6
:103C980006C00CF0000E0E6E640E0D6E75EC4AF048
:103CA8000B500001D5270C50D623D6AF04D0000EF8
:103CB800D66F000ED56FD6BF0AD0210ED55D030E84
:103CC800D659D8A004D0030ED66F200ED56F020E99
:103CD800ED19D8A4ADD0B9C105F0BAC106F0FF0EF0
:103CE800086EF60E076E0DEC52F0010161510524C5
:103CF8000001C76F0101625106200001C86FC8AFFB
:103D080019D0C8AF0CD0F60EC75DFF0EC859D8B091
:103D180006D0050ED525D56F000ED6211BD0C7C0FD
:103D28000BF0C8C00CF0000E0E6E040E0D6E75EC94
:103D38004AF00AD0C7C00BF0C8C00CF0000E0E6ED7
:103D4800020E0D6E75EC4AF00B500001D55DD56F73
:103D58000C50D659D66FC9C005F0CAC006F0F2C0DB
:103D680007F0F3C008F00DEC52F005C0C5F006C02E
:103D7800C6F0C5C005F0C6C006F0000E086E0A0EF3
:103D8800076E0DEC52F005500001D55D0650D6596E
:103D9800D8A002D0D6AF45D0C9C005F0CAC006F039
:103DA800F2C007F0F3C008F00DEC52F005C0C5F002
:103DB80006C0C6F0C5C005F0C6C006F0000E086E05
:103DC8000A0E076E0DEC52F005C0D5F006C0D6F00D
:103DD8000001C951CA11D8B424D00101CB51CC116A
:103DE800D8B41FD00001C8BF1CD0C85104E10B0EC5
:103DF800C75DD8A016D0010155515611D8A418D0C6
:103E0800CBC105F0CCC106F0000E086E3C0E076E63
:103E18000DEC52F005C0ACF006C0ADF032EC50F03D
:103E280007D0000E0001AD6F000EAC6F32EC50F001
:103E38000001EA05D8A41FD0F0C005F0F1C006F0D3
:103E4800000E086E0A0E076E0DEC52F00001D551F7
:103E5800055CD6510658D8B00ED0F0C005F0F1C0B8
:103E680006F0000E086E0A0E076E0DEC52F005C043
:103E7800D5F006C0D6F00001BA51D75DBF6FBB516F
:103E8800D859C06FC0AF04D0000EC06F000EBF6F0E
:103E9800ED51D8A416D0EA05D8A40FD0F0C005F08B
:103EA800F1C006F0000E086E0A0E076E0DEC52F017
:103EB80005C0D5F006C0D6F004D065C1D5F066C1FE
:103EC800D6F00001C951CA11D8B41200BC51D8B4F7
:103ED80015D0020EED19D8B411D0F6C005F0F7C010
:103EE80006F0000E086E0A0E076E0DEC52F0000187
:103EF800BF51055CD56FC0510658D66FD6BF3DD0AF
:103F0800C9C005F0CAC006F0F2C007F0F3C008F057
:103F18000DEC52F005C0C5F006C0C6F0C5C005F0EE
:103F2800C6C006F0000E086E0A0E076E0DEC52F0C1
:103F380005500001D55D0650D659D8A01ED0020EF6
:103F4800ED19D8A440D0010162BF3DD0625104E10F
:103F58000B0E615DD8A037D0F6C005F0F7C006F0AB
:103F6800000E086E0A0E076E0DEC52F00001D751D4
:103F7800055CD8510658D8B026D0C9C005F0CAC0CB
:103F880006F0F2C007F0F3C008F00DEC52F005C0DF
:103F9800C5F006C0C6F0C5C005F0C6C006F0000EE4
:103FA800086E0A0E076E0DEC52F005C0D5F006C07B
:103FB800D6F001017A2B470E00016C6FFA0E6D6F77
:103FC8007EEC51F003D0000E01017A6F0001D5514B
:103FD800BD5DBE51800AAE6FD651800AAE59D8B0C9
:103FE80004D0BDC0D5F0BEC0D6F0D5C0C1F0D6C093
:103FF800C2F0EE51EF11D8A48AD0000ECB6F290E73
:10400800CB25D96EDA6A010EDA22020EDE18D8A4A0
:104018007AD0CB51080D8F0EF324D96E020EF420FE
:10402800DA6EDF50D8A46FD0CB51080D910EF3246F
:10403800D96E020EF420DA6E010EDB5004E1280E70
:10404800DE5CD8A016D0CB51080D8D0EF324D96EA6
:10405800020EF420DA6EDF50D8B403D0CBC0C3F11F
:1040680008D001016A51D8A404D0CBC06BF1290E45
:104078006A6F0001CB51080D8D0EF324D96E020E24
:10408800F420DA6EDF50D8A404D001016951D8B405
:104098000BD0F2C005F0F3C006F0000E086E0A0E51
:1040A800076E0DEC52F00DD0020E0001F225056EE0
:1040B800000EF321066E000E086E0A0E076E0DEC58
:1040C80052F00001CB51020D890EF324D96E010E76
:1040D800F420DA6E05C0DEFF06C0DDFFCB51B00F5D
:1040E800D96EDA6A010EDF6EC907D8A0CA07CB51AC
:1040F800020D890EF324D96E010EF420DA6EDE501B
:10410800C15FDD50C25BCB2B070ECB6578D7000EA5
:10411800CB6FC1C00BF0C2C00CF0C9C00DF0CAC053
:104128000EF075EC4AF00BC0B8F00CC0B9F0290ECF
:104138000001CB25D96EDA6A010EDA22020EDE18EA
:10414800D8A441D0CB51B00FD96EDA6ADF50D8A4C9
:104158003AD0CB51020D000EF324D96E020EF42092
:10416800DA6EDE50B85DDE50B959D8A02CD0CB51EC
:10417800020D000EF324D96E020EF420DA6ECB5134
:10418800020D890EF324E16E010EF420E26EDECFFB
:10419800E6FFDDCFE5FFCB51B00FD96EDA6A010E2D
:1041A800DF6EC907D8A0CA07CB51020D890EF324C8
:1041B800D96E010EF420DA6EDE50C15FDD50C25BAD
:1041C800000ECB6F01D0CB2B080ECB6104D0C951A8
:1041D800CA11D8A49ED7000ECB6FC951CA11D8B442
:1041E8001200290ECB25D96EDA6A010EDA22020EE8
:1041F800DE18D8A433D0CB51B00FD96EDA6ADF50AD
:10420800D8A42CD0C1C00BF0C2C00CF0C9C00DF0AE
:10421800CAC00EF075EC4AF00001CB51020D890EB0
:10422800F324D96E010EF420DA6E0BC0DEFF0CC049
:10423800DDFFCB51B00FD96EDA6A010EDF6EC90708
:10424800D8A0CA07CB51020D890EF324D96E010EEE
:10425800F420DA6EDE50C15FDD50C25BCB2B080E56
:10426800CB611200BAD70001D46F86EC2EF0D36F61
:104278003C0E01017F6F89860001E805D8B459A872
:1042880002D081A2599801017D51D8A414D0050EFD
:104298000001D419D8A40FD0DB51D8A40CD0010E3A
:1042A80001017D6F49C131F14AC132F14BC133F18E
:1042B8004CC134F100D201017D05D8A427D0D00E1D
:1042C80031250001C56F070E010132210001C66FBB
:1042D800000E010133210001C76F000E01013421D6
:1042E8000001C86F010149510001C55D01014A5132
:1042F8000001C65901014B510001C75901014C5138
:104308000001C859D8B002D0020EF3D001017D05D2
:10431800D8A40ED0070E0001D419D8A409D0000ED5
:1043280001017D6F000E0001DB6FC2EC18F0C3D1F4
:104338000F0E01017D19D8A414D0020E0001D41962
:10434800D8A40FD001017C51D8B40BD0000EC76F90
:10435800040EC86F000EC96F000ECA6F000E7C6F86
:10436800CAD0010E01017D6515D1020E0001D419D4
:10437800D8B408D0030ED419D8B404D0060ED41972
:10438800D8A408D1DB51D8A4B8D001017C51D8A455
:104398009CD0A3D051C105F052C106F0000E086EA2
:1043A800640E076E030E0A6EE70E096E0001D45103
:1043B80031EC4EF005C051F106C052F19CD07D5150
:1043C8006FEC31F005C04FF106C050F14FC105F058
:1043D80050C106F001017D514B0D450EF326000E2C
:1043E800F4228F0EF324F66EDE0EF420F76E090029
:1043F800F5CF07F00A00F5CF08F07D514B0D470EB9
:10440800F326000EF4228F0EF324F66EDE0EF4204F
:10441800F76E0900F5CF09F00A00F5CF0AF00001A0
:10442800D45131EC4EF005C04FF106C050F10101F6
:104438004F055011D8B4CAD74FC1AEF050C1AFF034
:104448007D5109EC30F057D07D516FEC31F005C04B
:104458004FF106C050F14FC105F050C106F00101FF
:104468007D514B0D450EF326000EF4228F0EF324DA
:10447800F66EDE0EF420F76E0900F5CF07F00A009D
:10448800F5CF08F07D514B0D470EF326000EF422B0
:104498008F0EF324F66EDE0EF420F76E0900F5CFCA
:1044A80009F00A00F5CF0AF00001D45131EC4EF0C2
:1044B80005C04FF106C050F14FC1AEF050C1AFF08A
:1044C80001017D5109EC30F016D07D510A0AD8B4AB
:1044D80076D7050AD8B45ED7B7D77DC10CF0660E7B
:1044E8000D6E020E0E6ED3C00FF00001D451A7EC72
:1044F8004BF001017D6F010EC9D0020EDB19D8A463
:104508000ED001014D514E11D8A409D0010E4E6FA5
:10451800F40E4D6FF40E4925316F010E32D00101B2
:104528004D514E11D8B4C7D04951315D4A51325915
:104538004B5133594C513459D8B0BDD0000E0001FD
:10454800DB6F01014E5104E1020E4D5DD8A0B3D0DE
:104558004DC1C5F04EC1C6F00001D890C633C53371
:10456800D890C633C533D890C633C533C551010179
:104578004D5F0001C65101014E5B4D514925316F18
:104588004E514A21326F000E4B21336F000E4C21E1
:10459800346F91D0010E01017D657BD0050E0001BD
:1045A800D419D8A476D0DB51D8A473D0010EDB6F10
:1045B80001017C51D8B43FD0000E7C6F0F0E7D19DD
:1045C800D8A479D051C105F052C106F0076A086A2B
:1045D8000A0E096E000E0A6E000E0B6E000E0C6EAF
:1045E80006EC4EF00A0ED890053606360736083621
:1045F800E82EF9D7000E0524116E140E0620126E4F
:10460800000E0720136E000E0820146E57C115F017
:1046180058C116F0176A186AB7EC4AF011C0C7F10A
:1046280012C0C8F113C0C9F114C0CAF151C1B1F127
:1046380052C1B2F140D0010E7C6F0F0E7D19D8A483
:104648000BD0B1C11FF0B2C120F0BEEC51F01FC0B9
:1046580051F120C052F12FD0250E7D19D8A42BD0AE
:10466800000E7D6F000E7C6F000E596E000E00016B
:10467800DE6F000E586E000EAD6F000EAC6F32ECA0
:1046880050F0C2EC18F0F4EC2CF0020E0001DB6FD5
:1046980012D0070E0001D419D8A40DD0000EDB6F7C
:1046A800000E01014E6F000E4D6F000E066E0A0ED1
:1046B800056EF2EC4FF00001DB05D8B404D001011F
:1046C8007D05D8A4FCD001017D05D8A423D0000E17
:1046D8000A6E000EB8EC52F0040E0A6E010EB8EC29
:1046E80052F0BF0E1A6EFA0E1B6E020E56EC52F006
:1046F800B70E1A6EFB0E1B6E040E56EC52F0100E1F
:104708000A6E060EB8EC52F0000E0A6E070EB8ECF0
:1047180052F0D2D07D514B0D080EF326000EF42234
:104728008F0EF32400016C6FDE0EF4206D6F020E05
:1047380080EC4CF06DD07C51D8B426D0C90E4E6EAA
:104748004F6A280E506EFC0E516E51C123F052C1B3
:1047580024F0000E266E0A0E256E5BEC4EF023C088
:1047680052F024C053F051C123F052C124F0000E7E
:10477800266E0A0E256ED1EC4FF023C054F024C0EB
:1047880055F051EC50F031D0C90E4E6E4F6A280EDC
:10479800506EFC0E516EB1C11FF0B2C120F0BEECDC
:1047A80051F01FC023F020C024F0000E266E0A0E20
:1047B800256E5BEC4EF023C052F024C053F0B1C11B
:1047C8001FF0B2C120F0BEEC51F01FC023F020C092
:1047D80024F0000E266E0A0E256ED1EC4FF023C091
:1047E80054F024C055F051EC50F0C90E00016C6F24
:1047F8006D6B040E80EC4CF011D07D5176EC27F0F7
:1048080065C06CF066C06DF0040E80EC4CF006D00C
:1048180001017D510F0AD8B48ED7EFD7F7EC52F0CB
:10482800C90E4E6E4F6A820E506EFC0E516E00011C
:10483800DF51526E536A52BE5306000E556E0C0E6F
:10484800546E51EC50F0000E186EC90E196E1A6AAB
:10485800000E1B6E060EA5EC44F0C90E4E6E4F6A94
:10486800AC0E506EFC0E516E0001D3510BEC51F0A2
:104878000001C56FC551526E536AD3C054F0556AD2
:1048880051EC50F0000E186EC90E196E1A6A010E1E
:104898001B6E400EA5EC44F0000E186E7C0E196ECF
:1048A800FC0E1A6E020E1B6E7A0EA5EC44F0010E79
:1048B8000A6E070E44EC4FF0020E0001DB6F49C18F
:1048C80041F14AC142F14BC143F14CC144F1000EE0
:1048D80001017B6FD4C0C4F1000E7E6F1200000E80
:1048E8000101706F26D220EE03F0AC51D926AD51EC
:1048F800DA22DF50D8A402D0000E120020EE03F016
:10490800AC51D926AD51DA22DFAE02D0040E01D067
:10491800070EB36F000EB46FACC036F0ADC037F001
:10492800B351B425386EAE51190D0A0EF324D96E61
:10493800030EF420DA6EDF50396EAE51190D0C0EED
:10494800F324D96E030EF420DA6EDF503A6EAE51BE
:10495800190D120EF324D96E030EF420DA6EDF500F
:10496800FD0F3B6EB7EC36F00001B451040DF3CFE8
:104978004AF0F4CF4BF04A50AF25D96E4B50B021D6
:10498800DA6E36C0DEFF37C0DEFF38C0DEFF39C062
:10499800DEFF070EB319D8A4E6D0B451D8A428D0A6
:1049A800B451040DF3CF4AF0F4CF4BF04A50AF2581
:1049B800D96E4B50B021DA6EDECF11F0DECF12F097
:1049C800DECF13F0DECF14F00A0E156E000E166E51
:1049D800000E176E000E186E46EC46F011C01FF060
:1049E80012C020F0BEEC51F01FC057F120C058F1A2
:1049F800C7C105F0C8C106F0000E06BEFF0E076E5F
:104A0800086E0001B451040DF3CF4AF0F4CF4BF017
:104A18004A50AF25D96E4B50B021DA6EDECF09F07F
:104A2800DECF0AF0DECF0BF0DECF0CF006EC4EF056
:104A380005C011F006C012F007C013F008C014F04A
:104A4800000E156E040E166E000E176E000E186E10
:104A580046EC46F00001B451040DF3CF4CF0F4CF0E
:104A68004DF04C50AF25D96E4D50B021DA6E11C0C3
:104A7800DEFF12C0DEFF13C0DEFF14C0DEFFF751F9
:104A880004E1650EF65DD8A031D0B451040DF3CF22
:104A98004AF0F4CF4BF04A50AF25D96E4B50B021B5
:104AA800DA6EDECF4CF0DECF4DF0DECF4EF0DECF4B
:104AB8004FF0D8904C34506E4D34516E4E34526E87
:104AC8004F34536EB451040DF3CF54F0F4CF55F076
:104AD8005450AF25D96E5550B021DA6E50C0DEFF64
:104AE80051C0DEFF52C0DEFF53C0DEFFB451040DDB
:104AF800F3CF4AF0F4CF4BF04A50AF25D96E4B5064
:104B0800B021DA6E030EDBBE2BD0B451040DF3CF07
:104B18004AF0F4CF4BF04A50AF25D96E4B50B02134
:104B2800DA6E030EDBBE0CD0030EDB5019E1020E69
:104B3800DB5016E1010EDB5013E1DE04D8B010D0D3
:104B4800B451040DF3CF4AF0F4CF4BF04A50AF25DF
:104B5800D96E4B50B021DA6EDE6ADE6ADE6ADD6A33
:104B6800010E0101706F0001B42B020EB465D4D69A
:104B780020EE01F0AC51D926AD51DA220F0EDF64D8
:104B88002FD0070EB319D8A42BD0010E0101716FD5
:104B98000001E5514A6E4B6AD8904A364B3620EEF2
:104BA80001F0AC51D926AD51DA22DF50030B4C6E1F
:104BB8004D6A4A504C1804E14B504D18D8B488D16E
:104BC800020EEA6185D1080EA96F000EA86FD89071
:104BD800E535AA6FAB6BAB370A0EF2EC50F078D123
:104BE800000E0101716F74D1ACC036F0ADC037F062
:104BF800030E386EAE51190D0A0EF324D96E030E4A
:104C0800F420DA6EDF50396EAE51190D0C0EF32414
:104C1800D96E030EF420DA6EDF503A6E000E3B6E4A
:104C2800B7EC36F0361E371E364A372A36C0B1F092
:104C380037C0B2F0000E0001B46FACC036F0ADC0A2
:104C480037F0B4C038F0AE51190D0A0EF324D96EFE
:104C5800030EF420DA6EDF50396EAE51190D0C0ECA
:104C6800F324D96E030EF420DA6EDF503A6EB15198
:104C7800FD0F3B6EB7EC36F00001B451040DF3CFD5
:104C88004AF0F4CF4BF04A50AF25D96E4B50B021C3
:104C9800DA6E36C0DEFF37C0DEFF38C0DEFF39C04F
:104CA800DEFFB42B020EB465C8D712D1000EB46F64
:104CB800ACC036F0ADC037F0B4C038F0AE51190D05
:104CC8000A0EF324D96E030EF420DA6EDF50396E23
:104CD800AE51190D0C0EF324D96E030EF420DA6EC2
:104CE800DF503A6EAE51190D120EF324D96E030E31
:104CF800F420DA6EDF50FD0F3B6EB7EC36F00001A2
:104D0800B451040DF3CF4AF0F4CF4BF04A50AF251D
:104D1800D96E4B50B021DA6E36C0DEFF37C0DEFFE9
:104D280038C0DEFF39C0DEFFB42B020EB465C0D731
:104D3800CFD00001AE51010AD8B4D5D5070AD8B4EE
:104D480053D7B4D7000EB46FACC036F0ADC037F04F
:104D5800B451030F386EAE51190D0A0EF324D96EF3
:104D6800030EF420DA6EDF50396EAE51190D0C0EB9
:104D7800F324D96E030EF420DA6EDF503A6EAE518A
:104D8800190D150EF324D96E030EF420DA6EDF50D8
:104D98003B6EB7EC36F039AE32D00001B451040D99
:104DA800F3CF4AF0F4CF4BF04A50AF25D96E4B50B1
:104DB800B021DA6EDECF4CF0DECF4DF0DECF4EF014
:104DC800DECF4FF04C1E4D1E4E1E4F1E4C2A000EBD
:104DD8004D224E224F22B451040DF3CF50F0F4CFA0
:104DE80051F05050AF25D96E5150B021DA6E4CC0F9
:104DF800DEFF4DC0DEFF4EC0DEFF4FC0DEFF00010C
:104E0800B42B020EB465A0D76BD0000EB46FACC043
:104E180036F0ADC037F0B451050F386EAE51190DEC
:104E28000A0EF324D96E030EF420DA6EDF50396EC1
:104E3800AE51190D0C0EF324D96E030EF420DA6E60
:104E4800DF503A6EAE51190D150EF324D96E030ECC
:104E5800F420DA6EDF503B6EB7EC36F039AE32D064
:104E68000001B451040DF3CF4AF0F4CF4BF04A508F
:104E7800AF25D96E4B50B021DA6EDECF4CF0DECFC5
:104E88004DF0DECF4EF0DECF4FF04C1E4D1E4E1EC5
:104E98004F1E4C2A000E4D224E224F22B451040DB3
:104EA800F3CF50F0F4CF51F05050AF25D96E515098
:104EB800B021DA6E4CC0DEFF4DC0DEFF4EC0DEFF13
:104EC8004FC0DEFF0001B42B020EB465A0D708D096
:104ED8000001AE51040AD8B435D7010AD8B495D721
:104EE800010E12000001696F000169516FEC31F089
:104EF80005C06AF006C06BF08ED1EB51D8B405D06E
:104F08009D0E656FF20E666F1200840E656FF20ECD
:104F1800666F1200ED05D8A405D0970E656FF20EE6
:104F2800666F1200020EED19D8A405D0910E656FB8
:104F3800F20E666F12007D0E656FF20E666F12003C
:104F48006A516B11D8A405D06E0E656FFB0E666FA3
:104F58001200990E4E6E010E4F6E600E506EFC0ED2
:104F6800516E6AC052F06BC053F051EC50F0990E7C
:104F78000001656F010E666F12006A516B11D8B49B
:104F88000FD0990E4E6E010E4F6E190E506EFC0E1C
:104F9800516E6AC052F06BC053F051EC50F0E7D735
:104FA800630E656FF20E666F120001016C51D8B482
:104FB8000AD000016A056B11D8A405D0520E656F9E
:104FC800FC0E666F12000001EA51090D860EF324EB
:104FD800656FF10EF420666F1200990E4E6E010E89
:104FE8004F6E610E506EFC0E516E6AC052F06BC06F
:104FF80053F051EC50F0BBD7EC05D8A405D06C0E9B
:10500800656FF20E666F1200020EEC19D8A4C8D7AD
:105018008B0E656FF20E666F1200E9510A0D130EC2
:10502800F324656FF20EF420666F1200E851D8B4CD
:10503800B7D7750E656FF20E666F12006AC005F07D
:105048006BC006F0000E086E190E076E0DEC52F0DC
:10505800000E05240001656F030E0620666F12001E
:10506800E5510A0D450EF324656FF20EF420666FC4
:105078001200100E6B5DD8B013D0990E4E6E010E53
:105088004F6E3C0E506EFB0E516E6AC052F06BC0F4
:1050980053F06AC054F06BC055F051EC50F067D72C
:1050A800990E4E6E010E4F6ED60E506EFC0E516E5E
:1050B8006AC052F06BC053F06AC054F06BC055F030
:1050C80051EC50F054D7E751D8B405D0590E656F5C
:1050D800F20E666F1200A80E656FF20E666F120070
:1050E800640E656FFB0E666F1200500E656FFB0E47
:1050F800666F12005A0E656FFB0E666F1200460E41
:10510800656FFB0E666F12006AC067F06BC068F0CF
:105118006851000AD8A41DD06751000AD8B4E0D756
:10512800010AD8B4E2D7030AD8B4E4D7010AD8B43C
:10513800E6D70FD0BE0E656FFC0E666F1200B80E74
:10514800656FFC0E666F1200010E656FFC0E666FD0
:1051580012006AC067F06BC068F06851000AD8A4F2
:1051680015D06751000AD8B4EAD7010AD8B4ECD7E9
:10517800030AD8B4DFD70AD0E00E656FFA0E666F5F
:105188001200EB0E656FFA0E666F12006AC067F0C8
:105198006BC068F06851000AD8A407D06751030AA9
:1051A800D8B4EAD7070AD8B4ECD7990E4E6E010ED8
:1051B8004F6EF30E506EFC0E516ECB0E676F020EE3
:1051C800686FD8906A35D96E6B35DA6ED890D93653
:1051D800DA366751D9266851DA22DECF52F0DECFAF
:1051E80053F0DECF54F0DECF55F051EC50F0BFD67F
:1051F800E3510A0DD70EF324656FF10EF420666FA4
:105208001200A30E656FF20E666F12008E0E656FA8
:10521800F30E666F120000016951020AD8B46DD608
:10522800010AD8B4E9D6070AD8B4D7D6010AD8B43F
:10523800D4D6030AD8B4B9D6010AD8B4EED60F0A20
:10524800D8B4F4D6010AD8B4D3D7030AD8B4F6D65A
:10525800010AD8B40ED7070AD8B45CD6010AD8B464
:10526800BCD6030AD8B4FCD61E0AD8B4B6D6010AEE
:10527800D8B466D6030AD8B480D6010AD8B4ADD655
:10528800070AD8B4DBD6010AD8B4F3D6030AD8B4CF
:105298001AD7010AD8B4D2D60F0AD8B4EAD6010A66
:1052A800D8B432D7030AD8B454D7010AD8B46ED7C1
:1052B800070AD8B4DED6010AD8B477D7030AD8B417
:1052C800D8D6010AD8B471D73F0AD8B4D2D6010AC1
:1052D800D8B46BD7030AD8B4CCD6010AD8B465D7EA
:1052E800060AD8B48ED792D7000E0101006F000EBF
:1052F800016F000E036F000E026F000E056F000EA7
:10530800046F000E076F000E066F000E0A6F000E86
:105318000B6F000E106F050E00017D19D8A42AD05E
:105328007BC005F07CC006F07DC007F0B4EC4CF003
:1053380005500610D8A41200040E01010B6F7BC0A3
:10534800D9FF7CC0DAFFDF50006F000120EE01F0CA
:105358007B51D9267C51DA22DF500101016F00010F
:1053680020EE02F07B51D9267C51DA22DF50010170
:10537800106F1200070E7D6512007BC0D9FF7CC03C
:10538800DAFFDF500101006F000120EE01F07B51D0
:10539800D9267C51DA22DF500101016F7BC005F06C
:1053A8007CC006F07DC007F0B4EC4CF00550061048
:1053B800D8A41200F8D0080E00017D19D8A430D066
:1053C800020E01010B6F000120EE03F07B51D9267C
:1053D8007C51DA22DF507E6F20EE02F07B51D92615
:1053E8007C51DA22DF507F6F7E510101026F7FC04E
:1053F80003F1000120EE05F07B51D9267C51DA2219
:10540800DF507E6F20EE04F07B51D9267C51DA22E2
:10541800DF507F6F7E510101046F7FC005F1D1D04D
:1054280020EE02F07B51D9267C51DA22DF500101AF
:105438000A6F0A5100017E6F7F6BFB0E806FFF0EB3
:10544800816F7D51826F836B8051822781518323C5
:105458007E51821906E17F518319D8A402D0030E28
:1054680098D06A0E6C6FF70E6D6F7EEC51F0A9D074
:10547800080E00017D19D8A434D0010E01010B6F6C
:10548800000120EE03F07B51D9267C51DA22DF504F
:105498007E6F20EE02F07B51D9267C51DA22DF5054
:1054A8007F6F7E510101026F7FC003F1000E056F0F
:1054B800010E046F000120EE05F07B51D9267C51C6
:1054C800DA22DF507E6F20EE04F07B51D9267C5122
:1054D800DA22DF507F6F7E510101066F7FC007F12E
:1054E80070D0870E6C6FF70E6D6F7EEC51F069D03F
:1054F800000120EE03F07B51D9267C51DA22DF50DF
:105508007E6F20EE02F07B51D9267C51DA22DF50E3
:105518007F6F7E510101026F7FC003F1000120EE11
:1055280005F07B51D9267C51DA22DF507E6F20EEC0
:1055380004F07B51D9267C51DA22DF507F6F7E51EF
:105548000101046F7FC005F1080E00017D19D8B470
:1055580086D720EE06F07B51D9267C51DA22DF501F
:1055680001010A6F0A5100017E6F7F6BF70E806F91
:10557800FF0E816F7D51826F836B8051822781512D
:1055880083237E51821908E17F518319D8A404D05E
:10559800020E01010B6F15D0A40E6C6FF70E6D6F24
:1055A8007EEC51F00ED001010151030AD8B403D7A3
:1055B800070AD8B400D7020AD8B45AD7160AD8B4FA
:1055C80097D701010B51D8B46AD00A51D8B467D023
:1055D8007BC008F17CC009F100017D51010108255B
:1055E80000017E6F000E0101092100017F6F01019A
:1055F8000A5100017E5F000E7F5BFE0E7E250101D1
:10560800086FFF0E00017F210101096F48D000C11A
:105618000CF101C10DF102C10EF103C10FF112002D
:1056280000510C19D8A410D00D510119D8A40CD0D0
:10563800030E0119D8B404D0040E0119D8A404D05B
:105648000EC102F10FC103F1000E0C6F000E0D6FB9
:10565800000E0F6F000E0E6F120000510C19D8A427
:1056680013D00D510119D8A40FD0090E0019D8B4C0
:105678000BD0030E0B6F000E0C6F000E0D6F000E9B
:105688000F6F000E0E6F1200020E0B6F00C10CF1AF
:1056980001C10DF102C10EF103C10FF112000B514E
:1056A800010AD8B4DAD7030AD8B4B1D7010AD8A402
:1056B8001200B6D71650800B1F6E16501624216E96
:1056C80015BE21802150D8B40DD02128D8A408D0E7
:1056D800000E136E000E146E000E156E000E166E80
:1056E800158E08D0000E136E000E146E000E156E87
:1056F800000E166E1A50800B1F1A1A501A24206EAC
:1057080019BE20802050D8B40DD02028D8A408D0A5
:10571800000E176E000E186E000E196E000E1A6E2F
:10572800198E08D0000E176E000E186E000E196E36
:10573800000E1A6E2050D8B403D02150D8A409D036
:10574800000E136E000E146E000E156E000E166E0F
:10575800120019501302F3CF2AF0F4CF2BF02A507D
:10576800226E236A246A256A2B50266E276A286AC5
:10577800296A18501402F3CF2AF0F4CF2BF02A50DC
:105788002226000E2322242225222B502626000E14
:1057980027222822292217501502F3CF2AF0F4CF06
:1057A8002BF02A502226000E2322242225222B50B9
:1057B8002626000E27222822292224C025F023C0CD
:1057C80024F022C023F0226A17501402F3CF2AF0E3
:1057D800F4CF2BF02A5022262B502322000E24220D
:1057E800000E252218501302F3CF2AF0F4CF2BF025
:1057F8002A5022262B502322000E2422000E252276
:1058080024C025F023C024F022C023F0226A1750B8
:105818001302F3CF2AF0F4CF2BF02A5022262B5074
:105828002322000E2422000E252219501402F3CF41
:105838002AF0F4CF2BF02A5026262B502722000ED0
:105848002822000E292218501502F3CF2AF0F4CF8F
:105858002BF02A5026262B502722000E2822000E35
:10586800292219501502F3CF2AF0F4CF2BF02A5031
:105878001B6E2B501C6E1D6A1E6A1DC01EF01CC0BC
:105888001DF01BC01CF01B6A1B5026261C5027222B
:105898001D5028221E50292225502626000E272278
:1058A8002822292224C025F023C024F022C023F076
:1058B800226A205021C01BF01C6A1B26000E1C22E5
:1058C800820E1B242A6EFF0E1C202B6E0FD0D89040
:1058D800263627362836293625BE2680D890223601
:1058E8002336243625362A06D8A02B0628AEEFD72D
:1058F800000E206E25AE17D0FF0E22141B6EFF0E71
:1059080023141C6EFF0E24141D6E7F0E25141E6EAC
:105918001B501C101D101E10D8B403D0010E206E91
:1059280002D026B0FBD72050D8B41FD0010E2626AF
:10593800000E27222822292229A017D026C01BF0D2
:1059480027C01CF028C01DF029C01EF01E341E32CE
:105958001D321C321B321BC026F01CC027F01DC094
:1059680028F01EC029F02A4A2B2A2BBE0DD02B5016
:1059780003E12A28D8A008D0000E266E000E276E54
:10598800800E286E7F0E20D02BBE05D02B500EE146
:105998002A04D8B00BD0000E266E000E276E000E1B
:1059A800286E000E296E000E1F6E0FD02AC021F03F
:1059B800FF0E2616FF0E27167F0E2816000E291634
:1059C80021B0288ED8902130296E1F50291226C068
:1059D80013F027C014F028C015F029C016F01200E3
:1059E8000101D951330F746FD951880F736F8AEC45
:1059F8003CF0F2CFE6F4F29E000EA96E000EAA6EFD
:105A0800F60E056E066A000E086E020E076E68EC4A
:105A18004FF0F40E056E066A000E086E020E076E51
:105A280068EC4FF0F20E056E066A000E086E020E64
:105A3800076E68EC4FF0C70E056E010E066E000E7D
:105A4800086E040E076E68EC4FF0ED0E056E066AE0
:105A5800000E086E010E076E68EC4FF0EC0E056E36
:105A6800066A000E086E010E076E68EC4FF0F00E25
:105A7800056E066A000E086E020E076E68EC4FF09F
:105A8800EB0E056E066A000E086E010E076E68ECD6
:105A98004FF0EA0E056E066A000E086E010E076EDC
:105AA80068EC4FF0E90E056E066A000E086E010EEE
:105AB800076E68EC4FF0E80E056E066A000E086E79
:105AC800010E076E68EC4FF0EE0E056E066A000ECA
:105AD800086E020E076E68EC4FF0CB0E056E010ED5
